{
  "contractName": "ProductOrder",
  "abi": [
    {
      "inputs": [],
      "stateMutability": "nonpayable",
      "type": "constructor"
    },
    {
      "inputs": [
        {
          "internalType": "uint256",
          "name": "",
          "type": "uint256"
        }
      ],
      "name": "ProductDetails",
      "outputs": [
        {
          "internalType": "string",
          "name": "name",
          "type": "string"
        },
        {
          "internalType": "string",
          "name": "desc",
          "type": "string"
        },
        {
          "internalType": "uint256",
          "name": "price",
          "type": "uint256"
        },
        {
          "internalType": "address",
          "name": "seller",
          "type": "address"
        },
        {
          "internalType": "uint256",
          "name": "productId",
          "type": "uint256"
        },
        {
          "internalType": "address",
          "name": "buyer",
          "type": "address"
        },
        {
          "internalType": "enum ProductOrder.OrderStatus",
          "name": "status",
          "type": "uint8"
        }
      ],
      "stateMutability": "view",
      "type": "function"
    },
    {
      "inputs": [],
      "name": "owner",
      "outputs": [
        {
          "internalType": "address",
          "name": "",
          "type": "address"
        }
      ],
      "stateMutability": "view",
      "type": "function"
    },
    {
      "inputs": [
        {
          "internalType": "uint256",
          "name": "_productId",
          "type": "uint256"
        },
        {
          "internalType": "string",
          "name": "_name",
          "type": "string"
        },
        {
          "internalType": "string",
          "name": "_desc",
          "type": "string"
        },
        {
          "internalType": "uint256",
          "name": "_price",
          "type": "uint256"
        }
      ],
      "name": "registerProduct",
      "outputs": [],
      "stateMutability": "nonpayable",
      "type": "function"
    },
    {
      "inputs": [
        {
          "internalType": "uint256",
          "name": "_productId",
          "type": "uint256"
        }
      ],
      "name": "buy",
      "outputs": [],
      "stateMutability": "nonpayable",
      "type": "function"
    },
    {
      "inputs": [
        {
          "internalType": "uint256",
          "name": "_productId",
          "type": "uint256"
        }
      ],
      "name": "delivery",
      "outputs": [],
      "stateMutability": "nonpayable",
      "type": "function"
    }
  ],
  "bytecode": "0x608060405234801561001057600080fd5b50336000806101000a81548173ffffffffffffffffffffffffffffffffffffffff021916908373ffffffffffffffffffffffffffffffffffffffff160217905550610f65806100606000396000f3fe608060405234801561001057600080fd5b50600436106100575760003560e01c80631144fd721461005c57806312f8dea0146100785780638da5cb5b14610094578063d96a094a146100b2578063fa2f3e27146100ce575b600080fd5b61007660048036038101906100719190610682565b610104565b005b610092600480360381019061008d91906107f5565b6101ea565b005b61009c610379565b6040516100a991906108d5565b60405180910390f35b6100cc60048036038101906100c79190610682565b61039d565b005b6100e860048036038101906100e39190610682565b610499565b6040516100fb97969594939291906109fe565b60405180910390f35b3373ffffffffffffffffffffffffffffffffffffffff166001600083815260200190815260200160002060050160009054906101000a900473ffffffffffffffffffffffffffffffffffffffff1673ffffffffffffffffffffffffffffffffffffffff16146101a8576040517f08c379a000000000000000000000000000000000000000000000000000000000815260040161019f90610ac7565b60405180910390fd5b60026001600083815260200190815260200160002060050160146101000a81548160ff021916908360038111156101e2576101e1610987565b5b021790555050565b3373ffffffffffffffffffffffffffffffffffffffff1660008054906101000a900473ffffffffffffffffffffffffffffffffffffffff1673ffffffffffffffffffffffffffffffffffffffff1614610278576040517f08c379a000000000000000000000000000000000000000000000000000000000815260040161026f90610b33565b60405180910390fd5b600081116102bb576040517f08c379a00000000000000000000000000000000000000000000000000000000081526004016102b290610bc5565b60405180910390fd5b826001600086815260200190815260200160002060000190816102de9190610df1565b50816001600086815260200190815260200160002060010190816103029190610df1565b50336001600086815260200190815260200160002060030160006101000a81548173ffffffffffffffffffffffffffffffffffffffff021916908373ffffffffffffffffffffffffffffffffffffffff16021790555080600160008681526020019081526020016000206002018190555050505050565b60008054906101000a900473ffffffffffffffffffffffffffffffffffffffff1681565b3373ffffffffffffffffffffffffffffffffffffffff166001600083815260200190815260200160002060050160009054906101000a900473ffffffffffffffffffffffffffffffffffffffff1673ffffffffffffffffffffffffffffffffffffffff1603610441576040517f08c379a000000000000000000000000000000000000000000000000000000000815260040161043890610f0f565b60405180910390fd5b336001600083815260200190815260200160002060050160006101000a81548173ffffffffffffffffffffffffffffffffffffffff021916908373ffffffffffffffffffffffffffffffffffffffff16021790555050565b60016020528060005260406000206000915090508060000180546104bc90610c14565b80601f01602080910402602001604051908101604052809291908181526020018280546104e890610c14565b80156105355780601f1061050a57610100808354040283529160200191610535565b820191906000526020600020905b81548152906001019060200180831161051857829003601f168201915b50505050509080600101805461054a90610c14565b80601f016020809104026020016040519081016040528092919081815260200182805461057690610c14565b80156105c35780601f10610598576101008083540402835291602001916105c3565b820191906000526020600020905b8154815290600101906020018083116105a657829003601f168201915b5050505050908060020154908060030160009054906101000a900473ffffffffffffffffffffffffffffffffffffffff16908060040154908060050160009054906101000a900473ffffffffffffffffffffffffffffffffffffffff16908060050160149054906101000a900460ff16905087565b6000604051905090565b600080fd5b600080fd5b6000819050919050565b61065f8161064c565b811461066a57600080fd5b50565b60008135905061067c81610656565b92915050565b60006020828403121561069857610697610642565b5b60006106a68482850161066d565b91505092915050565b600080fd5b600080fd5b6000601f19601f8301169050919050565b7f4e487b7100000000000000000000000000000000000000000000000000000000600052604160045260246000fd5b610702826106b9565b810181811067ffffffffffffffff82111715610721576107206106ca565b5b80604052505050565b6000610734610638565b905061074082826106f9565b919050565b600067ffffffffffffffff8211156107605761075f6106ca565b5b610769826106b9565b9050602081019050919050565b82818337600083830152505050565b600061079861079384610745565b61072a565b9050828152602081018484840111156107b4576107b36106b4565b5b6107bf848285610776565b509392505050565b600082601f8301126107dc576107db6106af565b5b81356107ec848260208601610785565b91505092915050565b6000806000806080858703121561080f5761080e610642565b5b600061081d8782880161066d565b945050602085013567ffffffffffffffff81111561083e5761083d610647565b5b61084a878288016107c7565b935050604085013567ffffffffffffffff81111561086b5761086a610647565b5b610877878288016107c7565b92505060606108888782880161066d565b91505092959194509250565b600073ffffffffffffffffffffffffffffffffffffffff82169050919050565b60006108bf82610894565b9050919050565b6108cf816108b4565b82525050565b60006020820190506108ea60008301846108c6565b92915050565b600081519050919050565b600082825260208201905092915050565b60005b8381101561092a57808201518184015260208101905061090f565b83811115610939576000848401525b50505050565b600061094a826108f0565b61095481856108fb565b935061096481856020860161090c565b61096d816106b9565b840191505092915050565b6109818161064c565b82525050565b7f4e487b7100000000000000000000000000000000000000000000000000000000600052602160045260246000fd5b600481106109c7576109c6610987565b5b50565b60008190506109d8826109b6565b919050565b60006109e8826109ca565b9050919050565b6109f8816109dd565b82525050565b600060e0820190508181036000830152610a18818a61093f565b90508181036020830152610a2c818961093f565b9050610a3b6040830188610978565b610a4860608301876108c6565b610a556080830186610978565b610a6260a08301856108c6565b610a6f60c08301846109ef565b98975050505050505050565b7f6f6e6c792062757965722063616e206769766520746865207374617475730000600082015250565b6000610ab1601e836108fb565b9150610abc82610a7b565b602082019050919050565b60006020820190508181036000830152610ae081610aa4565b9050919050565b7f796f7520617265206e6f742073656c6c65720000000000000000000000000000600082015250565b6000610b1d6012836108fb565b9150610b2882610ae7565b602082019050919050565b60006020820190508181036000830152610b4c81610b10565b9050919050565b7f70726963652073686f756c642062652067726561746572207468616e207a657260008201527f6f00000000000000000000000000000000000000000000000000000000000000602082015250565b6000610baf6021836108fb565b9150610bba82610b53565b604082019050919050565b60006020820190508181036000830152610bde81610ba2565b9050919050565b7f4e487b7100000000000000000000000000000000000000000000000000000000600052602260045260246000fd5b60006002820490506001821680610c2c57607f821691505b602082108103610c3f57610c3e610be5565b5b50919050565b60008190508160005260206000209050919050565b60006020601f8301049050919050565b600082821b905092915050565b600060088302610ca77fffffffffffffffffffffffffffffffffffffffffffffffffffffffffffffffff82610c6a565b610cb18683610c6a565b95508019841693508086168417925050509392505050565b6000819050919050565b6000610cee610ce9610ce48461064c565b610cc9565b61064c565b9050919050565b6000819050919050565b610d0883610cd3565b610d1c610d1482610cf5565b848454610c77565b825550505050565b600090565b610d31610d24565b610d3c818484610cff565b505050565b5b81811015610d6057610d55600082610d29565b600181019050610d42565b5050565b601f821115610da557610d7681610c45565b610d7f84610c5a565b81016020851015610d8e578190505b610da2610d9a85610c5a565b830182610d41565b50505b505050565b600082821c905092915050565b6000610dc860001984600802610daa565b1980831691505092915050565b6000610de18383610db7565b9150826002028217905092915050565b610dfa826108f0565b67ffffffffffffffff811115610e1357610e126106ca565b5b610e1d8254610c14565b610e28828285610d64565b600060209050601f831160018114610e5b5760008415610e49578287015190505b610e538582610dd5565b865550610ebb565b601f198416610e6986610c45565b60005b82811015610e9157848901518255600182019150602085019450602081019050610e6c565b86831015610eae5784890151610eaa601f891682610db7565b8355505b6001600288020188555050505b505050505050565b7f73656c6c65722063616e27742062757920000000000000000000000000000000600082015250565b6000610ef96011836108fb565b9150610f0482610ec3565b602082019050919050565b60006020820190508181036000830152610f2881610eec565b905091905056fea26469706673582212204eea29d67286844f0d464b5ef504fa054091595bd9cff292ce7b2ea6dbc61ad264736f6c634300080f0033",
  "immutableReferences": {},
  "source": "// SPDX-License-Identifier: GPL-3.0\n \npragma solidity >=0.7.0 <0.9.0;\n \ncontract ProductOrder{\n    enum OrderStatus{\n        pending,\n        shipped,\n        deliverd,\n        cancel\n \n \n    }\n    struct Products{\n        string name;\n        string desc;\n        uint price;\n        address seller;\n        uint productId;\n        address buyer;\n        OrderStatus status;\n \n    }\n    address public owner;\n       constructor(){\n        owner = msg.sender;\n    }\n    modifier OnlyOwner{\n        require(owner == msg.sender, \"you are not seller\");\n        _;\n    }\n    mapping(uint=>Products) public ProductDetails;\n    function registerProduct( uint _productId, string memory _name, string memory _desc, uint _price) public OnlyOwner {\n        require(_price>0, \"price should be greater than zero\");\n        ProductDetails[_productId].name = _name;\n        ProductDetails[_productId].desc = _desc;\n        ProductDetails[_productId].seller = msg.sender;\n        ProductDetails[_productId].price = _price;\n    }\n   function buy(uint _productId) public{\n       require(ProductDetails[_productId].buyer != msg.sender, \"seller can't buy \");\n       ProductDetails[_productId].buyer= msg.sender;\n   } \n   function delivery(uint _productId) public{\n       require(ProductDetails[_productId].buyer == msg.sender, \"only buyer can give the status\");\n       ProductDetails[_productId].status = OrderStatus.deliverd;\n   }\n}",
  "sourcePath": "/Users/tj/Desktop/Projects/Project3-AH/TruffleProject/contracts/ProductOrder.sol",
  "compiler": {
    "name": "solc",
    "version": "0.8.15+commit.e14f2714.Emscripten.clang"
  },
  "schemaVersion": "3.4.8",
  "updatedAt": "2022-08-14T07:40:07.513Z",
  "devdoc": {
    "kind": "dev",
    "methods": {},
    "version": 1
  },
  "userdoc": {
    "kind": "user",
    "methods": {},
    "version": 1
  }
}