{
  "contractName": "StudentMarksheet",
  "abi": [
    {
      "inputs": [],
      "stateMutability": "nonpayable",
      "type": "constructor"
    },
    {
      "anonymous": false,
      "inputs": [
        {
          "indexed": false,
          "internalType": "address",
          "name": "_studentID",
          "type": "address"
        },
        {
          "indexed": false,
          "internalType": "uint256",
          "name": "_subjectID",
          "type": "uint256"
        },
        {
          "indexed": false,
          "internalType": "uint256",
          "name": "_marks",
          "type": "uint256"
        }
      ],
      "name": "eAddStudentSubjectMarks",
      "type": "event"
    },
    {
      "anonymous": false,
      "inputs": [
        {
          "indexed": false,
          "internalType": "address",
          "name": "_studentID",
          "type": "address"
        },
        {
          "indexed": false,
          "internalType": "uint256",
          "name": "_marks",
          "type": "uint256"
        }
      ],
      "name": "eStudentTotalMarks",
      "type": "event"
    },
    {
      "inputs": [
        {
          "internalType": "address",
          "name": "_studentID",
          "type": "address"
        },
        {
          "internalType": "uint256",
          "name": "_subjectID",
          "type": "uint256"
        },
        {
          "internalType": "uint256",
          "name": "_marks",
          "type": "uint256"
        }
      ],
      "name": "setStudentSubjectMark",
      "outputs": [],
      "stateMutability": "nonpayable",
      "type": "function"
    },
    {
      "inputs": [
        {
          "internalType": "address",
          "name": "_studentID",
          "type": "address"
        },
        {
          "internalType": "uint256",
          "name": "_subjectID",
          "type": "uint256"
        }
      ],
      "name": "getStudentSubjectMark",
      "outputs": [
        {
          "internalType": "uint256",
          "name": "",
          "type": "uint256"
        }
      ],
      "stateMutability": "view",
      "type": "function",
      "constant": true
    },
    {
      "inputs": [
        {
          "internalType": "address",
          "name": "_studentID",
          "type": "address"
        }
      ],
      "name": "getTotalMarks",
      "outputs": [
        {
          "internalType": "uint256",
          "name": "",
          "type": "uint256"
        }
      ],
      "stateMutability": "nonpayable",
      "type": "function"
    },
    {
      "inputs": [
        {
          "internalType": "address",
          "name": "_studentID",
          "type": "address"
        }
      ],
      "name": "addGrade",
      "outputs": [
        {
          "internalType": "bool",
          "name": "",
          "type": "bool"
        }
      ],
      "stateMutability": "nonpayable",
      "type": "function"
    }
  ],
  "bytecode": "0x608060405234801561001057600080fd5b50336000806101000a81548173ffffffffffffffffffffffffffffffffffffffff021916908373ffffffffffffffffffffffffffffffffffffffff160217905550610a52806100606000396000f3fe608060405234801561001057600080fd5b506004361061004c5760003560e01c80634e74cf6914610051578063850b418614610081578063b93fd5c71461009d578063cc75d5cc146100cd575b600080fd5b61006b6004803603810190610066919061064c565b6100fd565b6040516100789190610692565b60405180910390f35b61009b600480360381019061009691906106d9565b610331565b005b6100b760048036038101906100b2919061072c565b610432565b6040516100c49190610692565b60405180910390f35b6100e760048036038101906100e2919061064c565b610490565b6040516100f49190610787565b60405180910390f35b6000813373ffffffffffffffffffffffffffffffffffffffff1660008054906101000a900473ffffffffffffffffffffffffffffffffffffffff1673ffffffffffffffffffffffffffffffffffffffff16148061018557503373ffffffffffffffffffffffffffffffffffffffff168173ffffffffffffffffffffffffffffffffffffffff16145b6101c4576040517f08c379a00000000000000000000000000000000000000000000000000000000081526004016101bb906107ff565b60405180910390fd5b6000600160008573ffffffffffffffffffffffffffffffffffffffff1673ffffffffffffffffffffffffffffffffffffffff1681526020019081526020016000206000018054905090506000805b828110156102ec5781600160008873ffffffffffffffffffffffffffffffffffffffff1673ffffffffffffffffffffffffffffffffffffffff1681526020019081526020016000206001016000600160008a73ffffffffffffffffffffffffffffffffffffffff1673ffffffffffffffffffffffffffffffffffffffff16815260200190815260200160002060000184815481106102b3576102b261081f565b5b90600052602060002001548152602001908152602001600020546102d7919061087d565b915080806102e4906108d3565b915050610212565b507f9be064002f58f0523b3793d34acb663adeb13c5035022b463160f162e0099d0b858260405161031e92919061092a565b60405180910390a1809350505050919050565b600160008473ffffffffffffffffffffffffffffffffffffffff1673ffffffffffffffffffffffffffffffffffffffff16815260200190815260200160002060000182908060018154018082558091505060019003906000526020600020016000909190919091505580600160008573ffffffffffffffffffffffffffffffffffffffff1673ffffffffffffffffffffffffffffffffffffffff1681526020019081526020016000206001016000848152602001908152602001600020819055507f634180a4aa07a5ae08a48c1e47e023f7ec1c80a274fbfae80518bbb406c4bbfd83838360405161042593929190610953565b60405180910390a1505050565b6000600160008473ffffffffffffffffffffffffffffffffffffffff1673ffffffffffffffffffffffffffffffffffffffff168152602001908152602001600020600101600083815260200190815260200160002054905092915050565b60008060009054906101000a900473ffffffffffffffffffffffffffffffffffffffff1673ffffffffffffffffffffffffffffffffffffffff163373ffffffffffffffffffffffffffffffffffffffff1614610521576040517f08c379a0000000000000000000000000000000000000000000000000000000008152600401610518906109fc565b60405180910390fd5b600061052c836100fd565b9050607881106105915760018060008573ffffffffffffffffffffffffffffffffffffffff1673ffffffffffffffffffffffffffffffffffffffff16815260200190815260200160002060020160006101000a81548160ff0219169083151502179055505b600160008473ffffffffffffffffffffffffffffffffffffffff1673ffffffffffffffffffffffffffffffffffffffff16815260200190815260200160002060020160009054906101000a900460ff16915050919050565b600080fd5b600073ffffffffffffffffffffffffffffffffffffffff82169050919050565b6000610619826105ee565b9050919050565b6106298161060e565b811461063457600080fd5b50565b60008135905061064681610620565b92915050565b600060208284031215610662576106616105e9565b5b600061067084828501610637565b91505092915050565b6000819050919050565b61068c81610679565b82525050565b60006020820190506106a76000830184610683565b92915050565b6106b681610679565b81146106c157600080fd5b50565b6000813590506106d3816106ad565b92915050565b6000806000606084860312156106f2576106f16105e9565b5b600061070086828701610637565b9350506020610711868287016106c4565b9250506040610722868287016106c4565b9150509250925092565b60008060408385031215610743576107426105e9565b5b600061075185828601610637565b9250506020610762858286016106c4565b9150509250929050565b60008115159050919050565b6107818161076c565b82525050565b600060208201905061079c6000830184610778565b92915050565b600082825260208201905092915050565b7f596f7520617265206e6f7420617574686f72697a65642e000000000000000000600082015250565b60006107e96017836107a2565b91506107f4826107b3565b602082019050919050565b60006020820190508181036000830152610818816107dc565b9050919050565b7f4e487b7100000000000000000000000000000000000000000000000000000000600052603260045260246000fd5b7f4e487b7100000000000000000000000000000000000000000000000000000000600052601160045260246000fd5b600061088882610679565b915061089383610679565b9250827fffffffffffffffffffffffffffffffffffffffffffffffffffffffffffffffff038211156108c8576108c761084e565b5b828201905092915050565b60006108de82610679565b91507fffffffffffffffffffffffffffffffffffffffffffffffffffffffffffffffff82036109105761090f61084e565b5b600182019050919050565b6109248161060e565b82525050565b600060408201905061093f600083018561091b565b61094c6020830184610683565b9392505050565b6000606082019050610968600083018661091b565b6109756020830185610683565b6109826040830184610683565b949350505050565b7f596f757220726f6c65206973206e6f74207265636f676e69736564206173206160008201527f207072696e6369706c6500000000000000000000000000000000000000000000602082015250565b60006109e6602a836107a2565b91506109f18261098a565b604082019050919050565b60006020820190508181036000830152610a15816109d9565b905091905056fea2646970667358221220931b23a79b293eeca5928a91f1f632582769c6d1d2c5f6c35fd6573846b3127464736f6c634300080f0033",
  "immutableReferences": {},
  "source": "// SPDX-License-Identifier: MIT\npragma solidity >=0.5.10;\ncontract StudentMarksheet {\n    // global decleration\n    address pAdd;\n \n    struct studentMarksStructure {\n        uint[] stubjectList;\n        mapping( uint => uint ) subjectMarks;\n        bool grade;\n    }\n \n    // studentID => studentMarksStructure\n    mapping ( address => studentMarksStructure ) studentReport;\n \n    //events decleration\n    event eAddStudentSubjectMarks(address _studentID, uint _subjectID, uint _marks);\n    event eStudentTotalMarks(address _studentID, uint _marks);\n \n    // modifiers decleration\n    modifier mCheckStudent(address _studentID){\n        require(pAdd == msg.sender || _studentID == msg.sender,\"You are not authorized.\");\n        _;\n    }\n \n    modifier mIsPrinciple {\n        require(msg.sender == pAdd, \"Your role is not recognised as a principle\");\n        _;\n    }\n \n    // constructor\n    constructor(){\n        pAdd = msg.sender;\n    }\n \n    // function set student subject mark\n    function setStudentSubjectMark(address _studentID, uint _subjectID, uint _marks) public {\n        studentReport[_studentID].stubjectList.push(_subjectID);\n        studentReport[_studentID].subjectMarks[_subjectID] = _marks;\n        emit eAddStudentSubjectMarks(_studentID,_subjectID,_marks);\n    }\n \n    // function get student subject mark\n    function getStudentSubjectMark(address _studentID, uint _subjectID) public view returns(uint){\n        return studentReport[_studentID].subjectMarks[_subjectID];\n    }\n \n    function getTotalMarks(address _studentID) public mCheckStudent(_studentID) returns(uint){\n        uint length = studentReport[_studentID].stubjectList.length;\n        uint totalMarks = 0;\n        for(uint i = 0; i < length ; i++ ){\n            totalMarks = studentReport[_studentID].subjectMarks[studentReport[_studentID].stubjectList[i]] + totalMarks;\n        }\n        emit eStudentTotalMarks(_studentID, totalMarks);\n        return totalMarks;\n    }\n \n    function addGrade(address _studentID) public mIsPrinciple returns(bool){\n        uint totalMarks = getTotalMarks(_studentID);\n        // let consider one student appers in 2 exams only\n        if( totalMarks >= 120){\n            studentReport[_studentID].grade = true;\n        }\n        return studentReport[_studentID].grade;\n    }\n    \n}\n",
  "sourcePath": "/Users/tj/Desktop/Projects/Project1-EthPrivateDeployment/truffle/contracts/StudentMarksheet.sol",
  "compiler": {
    "name": "solc",
    "version": "0.8.15+commit.e14f2714.Emscripten.clang"
  },
  "schemaVersion": "3.4.8",
  "updatedAt": "2022-07-10T09:14:46.498Z",
  "networkType": "ethereum",
  "devdoc": {
    "kind": "dev",
    "methods": {},
    "version": 1
  },
  "userdoc": {
    "kind": "user",
    "methods": {},
    "version": 1
  }
}